{
  "_format": "hh-sol-artifact-1",
  "contractName": "Domains",
  "sourceName": "contracts/Domains.sol",
  "abi": [
    {
      "inputs": [
        {
          "internalType": "string",
          "name": "_tld",
          "type": "string"
        }
      ],
      "stateMutability": "payable",
      "type": "constructor"
    },
    {
      "inputs": [],
      "name": "AlreadyRegistered",
      "type": "error"
    },
    {
      "inputs": [
        {
          "internalType": "string",
          "name": "name",
          "type": "string"
        }
      ],
      "name": "InvalidName",
      "type": "error"
    },
    {
      "inputs": [],
      "name": "Unauthorized",
      "type": "error"
    },
    {
      "anonymous": false,
      "inputs": [
        {
          "indexed": true,
          "internalType": "address",
          "name": "owner",
          "type": "address"
        },
        {
          "indexed": true,
          "internalType": "address",
          "name": "approved",
          "type": "address"
        },
        {
          "indexed": true,
          "internalType": "uint256",
          "name": "tokenId",
          "type": "uint256"
        }
      ],
      "name": "Approval",
      "type": "event"
    },
    {
      "anonymous": false,
      "inputs": [
        {
          "indexed": true,
          "internalType": "address",
          "name": "owner",
          "type": "address"
        },
        {
          "indexed": true,
          "internalType": "address",
          "name": "operator",
          "type": "address"
        },
        {
          "indexed": false,
          "internalType": "bool",
          "name": "approved",
          "type": "bool"
        }
      ],
      "name": "ApprovalForAll",
      "type": "event"
    },
    {
      "anonymous": false,
      "inputs": [
        {
          "indexed": true,
          "internalType": "address",
          "name": "from",
          "type": "address"
        },
        {
          "indexed": true,
          "internalType": "address",
          "name": "to",
          "type": "address"
        },
        {
          "indexed": true,
          "internalType": "uint256",
          "name": "tokenId",
          "type": "uint256"
        }
      ],
      "name": "Transfer",
      "type": "event"
    },
    {
      "inputs": [
        {
          "internalType": "address",
          "name": "to",
          "type": "address"
        },
        {
          "internalType": "uint256",
          "name": "tokenId",
          "type": "uint256"
        }
      ],
      "name": "approve",
      "outputs": [],
      "stateMutability": "nonpayable",
      "type": "function"
    },
    {
      "inputs": [
        {
          "internalType": "address",
          "name": "owner",
          "type": "address"
        }
      ],
      "name": "balanceOf",
      "outputs": [
        {
          "internalType": "uint256",
          "name": "",
          "type": "uint256"
        }
      ],
      "stateMutability": "view",
      "type": "function"
    },
    {
      "inputs": [
        {
          "internalType": "string",
          "name": "",
          "type": "string"
        }
      ],
      "name": "domains",
      "outputs": [
        {
          "internalType": "address",
          "name": "",
          "type": "address"
        }
      ],
      "stateMutability": "view",
      "type": "function"
    },
    {
      "inputs": [
        {
          "internalType": "string",
          "name": "name",
          "type": "string"
        }
      ],
      "name": "getAddress",
      "outputs": [
        {
          "internalType": "address",
          "name": "",
          "type": "address"
        }
      ],
      "stateMutability": "view",
      "type": "function"
    },
    {
      "inputs": [],
      "name": "getAllNames",
      "outputs": [
        {
          "internalType": "string[]",
          "name": "",
          "type": "string[]"
        }
      ],
      "stateMutability": "view",
      "type": "function"
    },
    {
      "inputs": [
        {
          "internalType": "uint256",
          "name": "tokenId",
          "type": "uint256"
        }
      ],
      "name": "getApproved",
      "outputs": [
        {
          "internalType": "address",
          "name": "",
          "type": "address"
        }
      ],
      "stateMutability": "view",
      "type": "function"
    },
    {
      "inputs": [
        {
          "internalType": "string",
          "name": "name",
          "type": "string"
        }
      ],
      "name": "getRecord",
      "outputs": [
        {
          "internalType": "string",
          "name": "",
          "type": "string"
        }
      ],
      "stateMutability": "view",
      "type": "function"
    },
    {
      "inputs": [
        {
          "internalType": "address",
          "name": "owner",
          "type": "address"
        },
        {
          "internalType": "address",
          "name": "operator",
          "type": "address"
        }
      ],
      "name": "isApprovedForAll",
      "outputs": [
        {
          "internalType": "bool",
          "name": "",
          "type": "bool"
        }
      ],
      "stateMutability": "view",
      "type": "function"
    },
    {
      "inputs": [],
      "name": "isOwner",
      "outputs": [
        {
          "internalType": "bool",
          "name": "",
          "type": "bool"
        }
      ],
      "stateMutability": "view",
      "type": "function"
    },
    {
      "inputs": [],
      "name": "name",
      "outputs": [
        {
          "internalType": "string",
          "name": "",
          "type": "string"
        }
      ],
      "stateMutability": "view",
      "type": "function"
    },
    {
      "inputs": [
        {
          "internalType": "uint256",
          "name": "",
          "type": "uint256"
        }
      ],
      "name": "names",
      "outputs": [
        {
          "internalType": "string",
          "name": "",
          "type": "string"
        }
      ],
      "stateMutability": "view",
      "type": "function"
    },
    {
      "inputs": [
        {
          "internalType": "uint256",
          "name": "tokenId",
          "type": "uint256"
        }
      ],
      "name": "ownerOf",
      "outputs": [
        {
          "internalType": "address",
          "name": "",
          "type": "address"
        }
      ],
      "stateMutability": "view",
      "type": "function"
    },
    {
      "inputs": [
        {
          "internalType": "string",
          "name": "name",
          "type": "string"
        }
      ],
      "name": "price",
      "outputs": [
        {
          "internalType": "uint256",
          "name": "",
          "type": "uint256"
        }
      ],
      "stateMutability": "pure",
      "type": "function"
    },
    {
      "inputs": [
        {
          "internalType": "string",
          "name": "",
          "type": "string"
        }
      ],
      "name": "records",
      "outputs": [
        {
          "internalType": "string",
          "name": "",
          "type": "string"
        }
      ],
      "stateMutability": "view",
      "type": "function"
    },
    {
      "inputs": [
        {
          "internalType": "string",
          "name": "name",
          "type": "string"
        }
      ],
      "name": "register",
      "outputs": [],
      "stateMutability": "payable",
      "type": "function"
    },
    {
      "inputs": [
        {
          "internalType": "address",
          "name": "from",
          "type": "address"
        },
        {
          "internalType": "address",
          "name": "to",
          "type": "address"
        },
        {
          "internalType": "uint256",
          "name": "tokenId",
          "type": "uint256"
        }
      ],
      "name": "safeTransferFrom",
      "outputs": [],
      "stateMutability": "nonpayable",
      "type": "function"
    },
    {
      "inputs": [
        {
          "internalType": "address",
          "name": "from",
          "type": "address"
        },
        {
          "internalType": "address",
          "name": "to",
          "type": "address"
        },
        {
          "internalType": "uint256",
          "name": "tokenId",
          "type": "uint256"
        },
        {
          "internalType": "bytes",
          "name": "_data",
          "type": "bytes"
        }
      ],
      "name": "safeTransferFrom",
      "outputs": [],
      "stateMutability": "nonpayable",
      "type": "function"
    },
    {
      "inputs": [
        {
          "internalType": "address",
          "name": "operator",
          "type": "address"
        },
        {
          "internalType": "bool",
          "name": "approved",
          "type": "bool"
        }
      ],
      "name": "setApprovalForAll",
      "outputs": [],
      "stateMutability": "nonpayable",
      "type": "function"
    },
    {
      "inputs": [
        {
          "internalType": "string",
          "name": "name",
          "type": "string"
        },
        {
          "internalType": "string",
          "name": "record",
          "type": "string"
        }
      ],
      "name": "setRecord",
      "outputs": [],
      "stateMutability": "nonpayable",
      "type": "function"
    },
    {
      "inputs": [
        {
          "internalType": "bytes4",
          "name": "interfaceId",
          "type": "bytes4"
        }
      ],
      "name": "supportsInterface",
      "outputs": [
        {
          "internalType": "bool",
          "name": "",
          "type": "bool"
        }
      ],
      "stateMutability": "view",
      "type": "function"
    },
    {
      "inputs": [],
      "name": "symbol",
      "outputs": [
        {
          "internalType": "string",
          "name": "",
          "type": "string"
        }
      ],
      "stateMutability": "view",
      "type": "function"
    },
    {
      "inputs": [],
      "name": "tld",
      "outputs": [
        {
          "internalType": "string",
          "name": "",
          "type": "string"
        }
      ],
      "stateMutability": "view",
      "type": "function"
    },
    {
      "inputs": [
        {
          "internalType": "uint256",
          "name": "tokenId",
          "type": "uint256"
        }
      ],
      "name": "tokenURI",
      "outputs": [
        {
          "internalType": "string",
          "name": "",
          "type": "string"
        }
      ],
      "stateMutability": "view",
      "type": "function"
    },
    {
      "inputs": [
        {
          "internalType": "address",
          "name": "from",
          "type": "address"
        },
        {
          "internalType": "address",
          "name": "to",
          "type": "address"
        },
        {
          "internalType": "uint256",
          "name": "tokenId",
          "type": "uint256"
        }
      ],
      "name": "transferFrom",
      "outputs": [],
      "stateMutability": "nonpayable",
      "type": "function"
    },
    {
      "inputs": [
        {
          "internalType": "address",
          "name": "newOwner",
          "type": "address"
        }
      ],
      "name": "transferOwnership",
      "outputs": [],
      "stateMutability": "nonpayable",
      "type": "function"
    },
    {
      "inputs": [
        {
          "internalType": "string",
          "name": "name",
          "type": "string"
        }
      ],
      "name": "valid",
      "outputs": [
        {
          "internalType": "bool",
          "name": "",
          "type": "bool"
        }
      ],
      "stateMutability": "pure",
      "type": "function"
    },
    {
      "inputs": [],
      "name": "withdraw",
      "outputs": [],
      "stateMutability": "nonpayable",
      "type": "function"
    }
  ],
  "bytecode": "0x6080604052604051806108a0016040528061086b8152602001620053c061086b91396009908051906020019062000038929190620002c8565b506040518060400160405280600d81526020017f3c2f746578743e3c2f7376673e00000000000000000000000000000000000000815250600a908051906020019062000086929190620002c8565b5060405162005c2b38038062005c2b8339818101604052810190620000ac919062000515565b6040518060400160405280601181526020017f4f74746572204e616d652053797374656d0000000000000000000000000000008152506040518060400160405280600381526020017f4f544e0000000000000000000000000000000000000000000000000000000000815250816000908051906020019062000130929190620002c8565b50806001908051906020019062000149929190620002c8565b505050806008908051906020019062000164929190620002c8565b50620001b16040518060400160405280601881526020017f2573206e616d652073657276696365206465706c6f796564000000000000000081525082620001f960201b62001c571760201c565b33600b60006101000a81548173ffffffffffffffffffffffffffffffffffffffff021916908373ffffffffffffffffffffffffffffffffffffffff1602179055505062000663565b6200029b828260405160240162000212929190620005c3565b6040516020818303038152906040527f4b5c4277000000000000000000000000000000000000000000000000000000007bffffffffffffffffffffffffffffffffffffffffffffffffffffffff19166020820180517bffffffffffffffffffffffffffffffffffffffffffffffffffffffff83818316178352505050506200029f60201b60201c565b5050565b60008151905060006a636f6e736f6c652e6c6f679050602083016000808483855afa5050505050565b828054620002d6906200062d565b90600052602060002090601f016020900481019282620002fa576000855562000346565b82601f106200031557805160ff191683800117855562000346565b8280016001018555821562000346579182015b828111156200034557825182559160200191906001019062000328565b5b50905062000355919062000359565b5090565b5b80821115620003745760008160009055506001016200035a565b5090565b6000604051905090565b600080fd5b600080fd5b600080fd5b600080fd5b6000601f19601f8301169050919050565b7f4e487b7100000000000000000000000000000000000000000000000000000000600052604160045260246000fd5b620003e18262000396565b810181811067ffffffffffffffff82111715620004035762000402620003a7565b5b80604052505050565b60006200041862000378565b9050620004268282620003d6565b919050565b600067ffffffffffffffff821115620004495762000448620003a7565b5b620004548262000396565b9050602081019050919050565b60005b838110156200048157808201518184015260208101905062000464565b8381111562000491576000848401525b50505050565b6000620004ae620004a8846200042b565b6200040c565b905082815260208101848484011115620004cd57620004cc62000391565b5b620004da84828562000461565b509392505050565b600082601f830112620004fa57620004f96200038c565b5b81516200050c84826020860162000497565b91505092915050565b6000602082840312156200052e576200052d62000382565b5b600082015167ffffffffffffffff8111156200054f576200054e62000387565b5b6200055d84828501620004e2565b91505092915050565b600081519050919050565b600082825260208201905092915050565b60006200058f8262000566565b6200059b818562000571565b9350620005ad81856020860162000461565b620005b88162000396565b840191505092915050565b60006040820190508181036000830152620005df818562000582565b90508181036020830152620005f5818462000582565b90509392505050565b7f4e487b7100000000000000000000000000000000000000000000000000000000600052602260045260246000fd5b600060028204905060018216806200064657607f821691505b602082108114156200065d576200065c620005fe565b5b50919050565b614d4d80620006736000396000f3fe60806040526004361061019c5760003560e01c806370a08231116100ec578063c1880a981161008a578063f2c298be11610064578063f2c298be14610636578063f2fde38b14610652578063fb825e5f1461067b578063fe2c6198146106a65761019c565b8063c1880a9814610593578063c87b56dd146105bc578063e985e9c5146105f95761019c565b80639791c097116100c65780639791c097146104c7578063a22cb46514610504578063b88d4fde1461052d578063bf40fac1146105565761019c565b806370a08231146104345780638f32d59b1461047157806395d89b411461049c5761019c565b8063264492351161015957806342842e0e1161013357806342842e0e146103545780634622ab031461037d578063541e771d146103ba5780636352211e146103f75761019c565b806326449235146102d55780632d551432146103125780633ccfd60b1461033d5761019c565b806301ffc9a7146101a157806306fdde03146101de578063081812fc14610209578063095ea7b31461024657806311dd88451461026f57806323b872dd146102ac575b600080fd5b3480156101ad57600080fd5b506101c860048036038101906101c3919061311d565b6106e3565b6040516101d59190613165565b60405180910390f35b3480156101ea57600080fd5b506101f36107c5565b6040516102009190613219565b60405180910390f35b34801561021557600080fd5b50610230600480360381019061022b9190613271565b610857565b60405161023d91906132df565b60405180910390f35b34801561025257600080fd5b5061026d60048036038101906102689190613326565b6108dc565b005b34801561027b57600080fd5b50610296600480360381019061029191906133cb565b6109f4565b6040516102a39190613219565b60405180910390f35b3480156102b857600080fd5b506102d360048036038101906102ce9190613418565b610aa7565b005b3480156102e157600080fd5b506102fc60048036038101906102f7919061359b565b610b07565b60405161030991906132df565b60405180910390f35b34801561031e57600080fd5b50610327610b50565b6040516103349190613219565b60405180910390f35b34801561034957600080fd5b50610352610bde565b005b34801561036057600080fd5b5061037b60048036038101906103769190613418565b610cd1565b005b34801561038957600080fd5b506103a4600480360381019061039f9190613271565b610cf1565b6040516103b19190613219565b60405180910390f35b3480156103c657600080fd5b506103e160048036038101906103dc919061359b565b610d91565b6040516103ee9190613219565b60405180910390f35b34801561040357600080fd5b5061041e60048036038101906104199190613271565b610e47565b60405161042b91906132df565b60405180910390f35b34801561044057600080fd5b5061045b600480360381019061045691906135e4565b610ef9565b6040516104689190613620565b60405180910390f35b34801561047d57600080fd5b50610486610fb1565b6040516104939190613165565b60405180910390f35b3480156104a857600080fd5b506104b1611009565b6040516104be9190613219565b60405180910390f35b3480156104d357600080fd5b506104ee60048036038101906104e991906133cb565b61109b565b6040516104fb9190613165565b60405180910390f35b34801561051057600080fd5b5061052b60048036038101906105269190613667565b61114f565b005b34801561053957600080fd5b50610554600480360381019061054f9190613748565b611165565b005b34801561056257600080fd5b5061057d600480360381019061057891906133cb565b6111c7565b60405161058a91906132df565b60405180910390f35b34801561059f57600080fd5b506105ba60048036038101906105b591906137cb565b611212565b005b3480156105c857600080fd5b506105e360048036038101906105de9190613271565b6112ed565b6040516105f09190613219565b60405180910390f35b34801561060557600080fd5b50610620600480360381019061061b919061384c565b61143f565b60405161062d9190613165565b60405180910390f35b610650600480360381019061064b91906133cb565b6114d3565b005b34801561065e57600080fd5b50610679600480360381019061067491906135e4565b611951565b005b34801561068757600080fd5b506106906119d3565b60405161069d9190613998565b60405180910390f35b3480156106b257600080fd5b506106cd60048036038101906106c891906133cb565b611bb1565b6040516106da9190613620565b60405180910390f35b60007f80ac58cd000000000000000000000000000000000000000000000000000000007bffffffffffffffffffffffffffffffffffffffffffffffffffffffff1916827bffffffffffffffffffffffffffffffffffffffffffffffffffffffff191614806107ae57507f5b5e139f000000000000000000000000000000000000000000000000000000007bffffffffffffffffffffffffffffffffffffffffffffffffffffffff1916827bffffffffffffffffffffffffffffffffffffffffffffffffffffffff1916145b806107be57506107bd82611cf3565b5b9050919050565b6060600080546107d4906139e9565b80601f0160208091040260200160405190810160405280929190818152602001828054610800906139e9565b801561084d5780601f106108225761010080835404028352916020019161084d565b820191906000526020600020905b81548152906001019060200180831161083057829003601f168201915b5050505050905090565b600061086282611d5d565b6108a1576040517f08c379a000000000000000000000000000000000000000000000000000000000815260040161089890613a8d565b60405180910390fd5b6004600083815260200190815260200160002060009054906101000a900473ffffffffffffffffffffffffffffffffffffffff169050919050565b60006108e782610e47565b90508073ffffffffffffffffffffffffffffffffffffffff168373ffffffffffffffffffffffffffffffffffffffff161415610958576040517f08c379a000000000000000000000000000000000000000000000000000000000815260040161094f90613b1f565b60405180910390fd5b8073ffffffffffffffffffffffffffffffffffffffff16610977611dc9565b73ffffffffffffffffffffffffffffffffffffffff1614806109a657506109a5816109a0611dc9565b61143f565b5b6109e5576040517f08c379a00000000000000000000000000000000000000000000000000000000081526004016109dc90613bb1565b60405180910390fd5b6109ef8383611dd1565b505050565b6060600d8383604051610a08929190613c01565b90815260200160405180910390208054610a21906139e9565b80601f0160208091040260200160405190810160405280929190818152602001828054610a4d906139e9565b8015610a9a5780601f10610a6f57610100808354040283529160200191610a9a565b820191906000526020600020905b815481529060010190602001808311610a7d57829003601f168201915b5050505050905092915050565b610ab8610ab2611dc9565b82611e8a565b610af7576040517f08c379a0000000000000000000000000000000000000000000000000000000008152600401610aee90613c8c565b60405180910390fd5b610b02838383611f68565b505050565b600c818051602081018201805184825260208301602085012081835280955050505050506000915054906101000a900473ffffffffffffffffffffffffffffffffffffffff1681565b60088054610b5d906139e9565b80601f0160208091040260200160405190810160405280929190818152602001828054610b89906139e9565b8015610bd65780601f10610bab57610100808354040283529160200191610bd6565b820191906000526020600020905b815481529060010190602001808311610bb957829003601f168201915b505050505081565b610be6610fb1565b610c1c576040517f82b4290000000000000000000000000000000000000000000000000000000000815260040160405180910390fd5b600047905060003373ffffffffffffffffffffffffffffffffffffffff1682604051610c4790613cdd565b60006040518083038185875af1925050503d8060008114610c84576040519150601f19603f3d011682016040523d82523d6000602084013e610c89565b606091505b5050905080610ccd576040517f08c379a0000000000000000000000000000000000000000000000000000000008152600401610cc490613d3e565b60405180910390fd5b5050565b610cec83838360405180602001604052806000815250611165565b505050565b600e6020528060005260406000206000915090508054610d10906139e9565b80601f0160208091040260200160405190810160405280929190818152602001828054610d3c906139e9565b8015610d895780601f10610d5e57610100808354040283529160200191610d89565b820191906000526020600020905b815481529060010190602001808311610d6c57829003601f168201915b505050505081565b600d818051602081018201805184825260208301602085012081835280955050505050506000915090508054610dc6906139e9565b80601f0160208091040260200160405190810160405280929190818152602001828054610df2906139e9565b8015610e3f5780601f10610e1457610100808354040283529160200191610e3f565b820191906000526020600020905b815481529060010190602001808311610e2257829003601f168201915b505050505081565b6000806002600084815260200190815260200160002060009054906101000a900473ffffffffffffffffffffffffffffffffffffffff169050600073ffffffffffffffffffffffffffffffffffffffff168173ffffffffffffffffffffffffffffffffffffffff161415610ef0576040517f08c379a0000000000000000000000000000000000000000000000000000000008152600401610ee790613dd0565b60405180910390fd5b80915050919050565b60008073ffffffffffffffffffffffffffffffffffffffff168273ffffffffffffffffffffffffffffffffffffffff161415610f6a576040517f08c379a0000000000000000000000000000000000000000000000000000000008152600401610f6190613e62565b60405180910390fd5b600360008373ffffffffffffffffffffffffffffffffffffffff1673ffffffffffffffffffffffffffffffffffffffff168152602001908152602001600020549050919050565b6000600b60009054906101000a900473ffffffffffffffffffffffffffffffffffffffff1673ffffffffffffffffffffffffffffffffffffffff163373ffffffffffffffffffffffffffffffffffffffff1614905090565b606060018054611018906139e9565b80601f0160208091040260200160405190810160405280929190818152602001828054611044906139e9565b80156110915780601f1061106657610100808354040283529160200191611091565b820191906000526020600020905b81548152906001019060200180831161107457829003601f168201915b5050505050905090565b600060036110ec84848080601f016020809104026020016040519081016040528093929190818152602001838380828437600081840152601f19601f820116905080830192505050505050506121cf565b101580156111475750600a61114484848080601f016020809104026020016040519081016040528093929190818152602001838380828437600081840152601f19601f820116905080830192505050505050506121cf565b11155b905092915050565b61116161115a611dc9565b8383612384565b5050565b611176611170611dc9565b83611e8a565b6111b5576040517f08c379a00000000000000000000000000000000000000000000000000000000081526004016111ac90613c8c565b60405180910390fd5b6111c1848484846124f1565b50505050565b6000600c83836040516111db929190613c01565b908152602001604051809103902060009054906101000a900473ffffffffffffffffffffffffffffffffffffffff16905092915050565b600c8484604051611224929190613c01565b908152602001604051809103902060009054906101000a900473ffffffffffffffffffffffffffffffffffffffff1673ffffffffffffffffffffffffffffffffffffffff163373ffffffffffffffffffffffffffffffffffffffff16146112b7576040517f82b4290000000000000000000000000000000000000000000000000000000000815260040160405180910390fd5b8181600d86866040516112cb929190613c01565b908152602001604051809103902091906112e6929190612f88565b5050505050565b60606112f882611d5d565b611337576040517f08c379a000000000000000000000000000000000000000000000000000000000815260040161132e90613ef4565b60405180910390fd5b6000600660008481526020019081526020016000208054611357906139e9565b80601f0160208091040260200160405190810160405280929190818152602001828054611383906139e9565b80156113d05780601f106113a5576101008083540402835291602001916113d0565b820191906000526020600020905b8154815290600101906020018083116113b357829003601f168201915b5050505050905060006113e161254d565b90506000815114156113f757819250505061143a565b60008251111561142c578082604051602001611414929190613f45565b6040516020818303038152906040529250505061143a565b61143584612564565b925050505b919050565b6000600560008473ffffffffffffffffffffffffffffffffffffffff1673ffffffffffffffffffffffffffffffffffffffff16815260200190815260200160002060008373ffffffffffffffffffffffffffffffffffffffff1673ffffffffffffffffffffffffffffffffffffffff16815260200190815260200160002060009054906101000a900460ff16905092915050565b600073ffffffffffffffffffffffffffffffffffffffff16600c83836040516114fd929190613c01565b908152602001604051809103902060009054906101000a900473ffffffffffffffffffffffffffffffffffffffff1673ffffffffffffffffffffffffffffffffffffffff1614611579576040517f3a81d6fc00000000000000000000000000000000000000000000000000000000815260040160405180910390fd5b611583828261109b565b6115c65781816040517f7f19f48d0000000000000000000000000000000000000000000000000000000081526004016115bd929190613f96565b60405180910390fd5b60006115d28383611bb1565b905080341015611617576040517f08c379a000000000000000000000000000000000000000000000000000000000815260040161160e90614006565b60405180910390fd5b60008383600860405160200161162f93929190614106565b60405160208183030381529060405290506000600982600a60405160200161165993929190614137565b60405160208183030381529060405290506000611676600761260b565b90508585600e6000848152602001908152602001600020919061169a929190612f88565b5060006116ea87878080601f016020809104026020016040519081016040528093929190818152602001838380828437600081840152601f19601f820116905080830192505050505050506121cf565b905060006116f782612619565b90506117eb604051806060016040528060318152602001614c6e6031913989898080601f016020809104026020016040519081016040528093929190818152602001838380828437600081840152601f19601f8201169050808301925050505050505060088054611767906139e9565b80601f0160208091040260200160405190810160405280929190818152602001828054611793906139e9565b80156117e05780601f106117b5576101008083540402835291602001916117e0565b820191906000526020600020905b8154815290600101906020018083116117c357829003601f168201915b50505050508661277a565b6000611821866117fa8761281c565b8460405160200161180d939291906142e4565b60405160208183030381529060405261281c565b9050600081604051602001611836919061438d565b6040516020818303038152906040529050611868604051806060016040528060398152602001614c3560399139612995565b6118a76040518060400160405280600e81526020017f46696e616c20746f6b656e55524900000000000000000000000000000000000081525082611c57565b6118c8604051806060016040528060398152602001614c9f60399139612995565b6118d23386612a2e565b6118dc8582612a4c565b33600c8b8b6040516118ef929190613c01565b908152602001604051809103902060006101000a81548173ffffffffffffffffffffffffffffffffffffffff021916908373ffffffffffffffffffffffffffffffffffffffff1602179055506119456007612ac0565b50505050505050505050565b611959610fb1565b61198f576040517f82b4290000000000000000000000000000000000000000000000000000000000815260040160405180910390fd5b80600b60006101000a81548173ffffffffffffffffffffffffffffffffffffffff021916908373ffffffffffffffffffffffffffffffffffffffff16021790555050565b6060611a136040518060400160405280601f81526020017f47657474696e6720616c6c206e616d65732066726f6d20636f6e747261637400815250612995565b6000611a1f600761260b565b67ffffffffffffffff811115611a3857611a37613470565b5b604051908082528060200260200182016040528015611a6b57816020015b6060815260200190600190039081611a565790505b50905060005b611a7b600761260b565b811015611ba957600e60008281526020019081526020016000208054611aa0906139e9565b80601f0160208091040260200160405190810160405280929190818152602001828054611acc906139e9565b8015611b195780601f10611aee57610100808354040283529160200191611b19565b820191906000526020600020905b815481529060010190602001808311611afc57829003601f168201915b5050505050828281518110611b3157611b306143af565b5b6020026020010181905250611b966040518060400160405280601781526020017f4e616d6520666f7220746f6b656e20256420697320257300000000000000000081525082848481518110611b8957611b886143af565b5b6020026020010151612ad6565b8080611ba19061440d565b915050611a71565b508091505090565b600080611c0184848080601f016020809104026020016040519081016040528093929190818152602001838380828437600081840152601f19601f820116905080830192505050505050506121cf565b905060008111611c1057600080fd5b6003811415611c2a576706f05b59d3b20000915050611c51565b6004811415611c4457670429d069189e0000915050611c51565b67016345785d8a00009150505b92915050565b611cef8282604051602401611c6d929190614456565b6040516020818303038152906040527f4b5c4277000000000000000000000000000000000000000000000000000000007bffffffffffffffffffffffffffffffffffffffffffffffffffffffff19166020820180517bffffffffffffffffffffffffffffffffffffffffffffffffffffffff8381831617835250505050612b75565b5050565b60007f01ffc9a7000000000000000000000000000000000000000000000000000000007bffffffffffffffffffffffffffffffffffffffffffffffffffffffff1916827bffffffffffffffffffffffffffffffffffffffffffffffffffffffff1916149050919050565b60008073ffffffffffffffffffffffffffffffffffffffff166002600084815260200190815260200160002060009054906101000a900473ffffffffffffffffffffffffffffffffffffffff1673ffffffffffffffffffffffffffffffffffffffff1614159050919050565b600033905090565b816004600083815260200190815260200160002060006101000a81548173ffffffffffffffffffffffffffffffffffffffff021916908373ffffffffffffffffffffffffffffffffffffffff160217905550808273ffffffffffffffffffffffffffffffffffffffff16611e4483610e47565b73ffffffffffffffffffffffffffffffffffffffff167f8c5be1e5ebec7d5bd14f71427d1e84f3dd0314c0f7b2291e5b200ac8c7c3b92560405160405180910390a45050565b6000611e9582611d5d565b611ed4576040517f08c379a0000000000000000000000000000000000000000000000000000000008152600401611ecb906144ff565b60405180910390fd5b6000611edf83610e47565b90508073ffffffffffffffffffffffffffffffffffffffff168473ffffffffffffffffffffffffffffffffffffffff161480611f4e57508373ffffffffffffffffffffffffffffffffffffffff16611f3684610857565b73ffffffffffffffffffffffffffffffffffffffff16145b80611f5f5750611f5e818561143f565b5b91505092915050565b8273ffffffffffffffffffffffffffffffffffffffff16611f8882610e47565b73ffffffffffffffffffffffffffffffffffffffff1614611fde576040517f08c379a0000000000000000000000000000000000000000000000000000000008152600401611fd590614591565b60405180910390fd5b600073ffffffffffffffffffffffffffffffffffffffff168273ffffffffffffffffffffffffffffffffffffffff16141561204e576040517f08c379a000000000000000000000000000000000000000000000000000000000815260040161204590614623565b60405180910390fd5b612059838383612b9e565b612064600082611dd1565b6001600360008573ffffffffffffffffffffffffffffffffffffffff1673ffffffffffffffffffffffffffffffffffffffff16815260200190815260200160002060008282546120b49190614643565b925050819055506001600360008473ffffffffffffffffffffffffffffffffffffffff1673ffffffffffffffffffffffffffffffffffffffff168152602001908152602001600020600082825461210b9190614677565b92505081905550816002600083815260200190815260200160002060006101000a81548173ffffffffffffffffffffffffffffffffffffffff021916908373ffffffffffffffffffffffffffffffffffffffff160217905550808273ffffffffffffffffffffffffffffffffffffffff168473ffffffffffffffffffffffffffffffffffffffff167fddf252ad1be2c89b69c2b068fc378daa952ba7f163c4a11628f55a4df523b3ef60405160405180910390a46121ca838383612ba3565b505050565b60008060008084519050600092505b808210156123795760008583815181106121fb576121fa6143af565b5b602001015160f81c60f81b9050608060f81b817effffffffffffffffffffffffffffffffffffffffffffffffffffffffffffff1916101561224a576001836122439190614677565b9250612365565b60e060f81b817effffffffffffffffffffffffffffffffffffffffffffffffffffffffffffff1916101561228c576002836122859190614677565b9250612364565b60f060f81b817effffffffffffffffffffffffffffffffffffffffffffffffffffffffffffff191610156122ce576003836122c79190614677565b9250612363565b60f8801b817effffffffffffffffffffffffffffffffffffffffffffffffffffffffffffff1916101561230f576004836123089190614677565b9250612362565b60fc60f81b817effffffffffffffffffffffffffffffffffffffffffffffffffffffffffffff191610156123515760058361234a9190614677565b9250612361565b60068361235e9190614677565b92505b5b5b5b5b5082806123719061440d565b9350506121de565b829350505050919050565b8173ffffffffffffffffffffffffffffffffffffffff168373ffffffffffffffffffffffffffffffffffffffff1614156123f3576040517f08c379a00000000000000000000000000000000000000000000000000000000081526004016123ea90614719565b60405180910390fd5b80600560008573ffffffffffffffffffffffffffffffffffffffff1673ffffffffffffffffffffffffffffffffffffffff16815260200190815260200160002060008473ffffffffffffffffffffffffffffffffffffffff1673ffffffffffffffffffffffffffffffffffffffff16815260200190815260200160002060006101000a81548160ff0219169083151502179055508173ffffffffffffffffffffffffffffffffffffffff168373ffffffffffffffffffffffffffffffffffffffff167f17307eab39ab6107e8899845ad3d59bd9653f200f220920489ca2b5937696c31836040516124e49190613165565b60405180910390a3505050565b6124fc848484611f68565b61250884848484612ba8565b612547576040517f08c379a000000000000000000000000000000000000000000000000000000000815260040161253e906147ab565b60405180910390fd5b50505050565b606060405180602001604052806000815250905090565b606061256f82611d5d565b6125ae576040517f08c379a00000000000000000000000000000000000000000000000000000000081526004016125a59061483d565b60405180910390fd5b60006125b861254d565b905060008151116125d85760405180602001604052806000815250612603565b806125e284612619565b6040516020016125f3929190613f45565b6040516020818303038152906040525b915050919050565b600081600001549050919050565b60606000821415612661576040518060400160405280600181526020017f30000000000000000000000000000000000000000000000000000000000000008152509050612775565b600082905060005b6000821461269357808061267c9061440d565b915050600a8261268c919061488c565b9150612669565b60008167ffffffffffffffff8111156126af576126ae613470565b5b6040519080825280601f01601f1916602001820160405280156126e15781602001600182028036833780820191505090505b5090505b6000851461276e576001826126fa9190614643565b9150600a8561270991906148bd565b60306127159190614677565b60f81b81838151811061272b5761272a6143af565b5b60200101907effffffffffffffffffffffffffffffffffffffffffffffffffffffffffffff1916908160001a905350600a85612767919061488c565b94506126e5565b8093505050505b919050565b6128168484848460405160240161279494939291906148ee565b6040516020818303038152906040527f9fd009f5000000000000000000000000000000000000000000000000000000007bffffffffffffffffffffffffffffffffffffffffffffffffffffffff19166020820180517bffffffffffffffffffffffffffffffffffffffffffffffffffffffff8381831617835250505050612b75565b50505050565b606060008251141561283f57604051806020016040528060008152509050612990565b6000604051806060016040528060408152602001614cd8604091399050600060036002855161286e9190614677565b612878919061488c565b60046128849190614948565b905060006020826128959190614677565b67ffffffffffffffff8111156128ae576128ad613470565b5b6040519080825280601f01601f1916602001820160405280156128e05781602001600182028036833780820191505090505b509050818152600183018586518101602084015b8183101561294f576003830192508251603f8160121c168501518253600182019150603f81600c1c168501518253600182019150603f8160061c168501518253600182019150603f81168501518253600182019150506128f4565b600389510660018114612969576002811461297957612984565b613d3d60f01b6002830352612984565b603d60f81b60018303525b50505050508093505050505b919050565b612a2b816040516024016129a99190613219565b6040516020818303038152906040527f41304fac000000000000000000000000000000000000000000000000000000007bffffffffffffffffffffffffffffffffffffffffffffffffffffffff19166020820180517bffffffffffffffffffffffffffffffffffffffffffffffffffffffff8381831617835250505050612b75565b50565b612a48828260405180602001604052806000815250612d30565b5050565b612a5582611d5d565b612a94576040517f08c379a0000000000000000000000000000000000000000000000000000000008152600401612a8b90614a14565b60405180910390fd5b80600660008481526020019081526020016000209080519060200190612abb92919061300e565b505050565b6001816000016000828254019250508190555050565b612b70838383604051602401612aee93929190614a34565b6040516020818303038152906040527fa3f5c739000000000000000000000000000000000000000000000000000000007bffffffffffffffffffffffffffffffffffffffffffffffffffffffff19166020820180517bffffffffffffffffffffffffffffffffffffffffffffffffffffffff8381831617835250505050612b75565b505050565b60008151905060006a636f6e736f6c652e6c6f679050602083016000808483855afa5050505050565b505050565b505050565b6000612bc98473ffffffffffffffffffffffffffffffffffffffff16612d8b565b15612d23578373ffffffffffffffffffffffffffffffffffffffff1663150b7a02612bf2611dc9565b8786866040518563ffffffff1660e01b8152600401612c149493929190614ace565b6020604051808303816000875af1925050508015612c5057506040513d601f19601f82011682018060405250810190612c4d9190614b2f565b60015b612cd3573d8060008114612c80576040519150601f19603f3d011682016040523d82523d6000602084013e612c85565b606091505b50600081511415612ccb576040517f08c379a0000000000000000000000000000000000000000000000000000000008152600401612cc2906147ab565b60405180910390fd5b805181602001fd5b63150b7a0260e01b7bffffffffffffffffffffffffffffffffffffffffffffffffffffffff1916817bffffffffffffffffffffffffffffffffffffffffffffffffffffffff191614915050612d28565b600190505b949350505050565b612d3a8383612dae565b612d476000848484612ba8565b612d86576040517f08c379a0000000000000000000000000000000000000000000000000000000008152600401612d7d906147ab565b60405180910390fd5b505050565b6000808273ffffffffffffffffffffffffffffffffffffffff163b119050919050565b600073ffffffffffffffffffffffffffffffffffffffff168273ffffffffffffffffffffffffffffffffffffffff161415612e1e576040517f08c379a0000000000000000000000000000000000000000000000000000000008152600401612e1590614ba8565b60405180910390fd5b612e2781611d5d565b15612e67576040517f08c379a0000000000000000000000000000000000000000000000000000000008152600401612e5e90614c14565b60405180910390fd5b612e7360008383612b9e565b6001600360008473ffffffffffffffffffffffffffffffffffffffff1673ffffffffffffffffffffffffffffffffffffffff1681526020019081526020016000206000828254612ec39190614677565b92505081905550816002600083815260200190815260200160002060006101000a81548173ffffffffffffffffffffffffffffffffffffffff021916908373ffffffffffffffffffffffffffffffffffffffff160217905550808273ffffffffffffffffffffffffffffffffffffffff16600073ffffffffffffffffffffffffffffffffffffffff167fddf252ad1be2c89b69c2b068fc378daa952ba7f163c4a11628f55a4df523b3ef60405160405180910390a4612f8460008383612ba3565b5050565b828054612f94906139e9565b90600052602060002090601f016020900481019282612fb65760008555612ffd565b82601f10612fcf57803560ff1916838001178555612ffd565b82800160010185558215612ffd579182015b82811115612ffc578235825591602001919060010190612fe1565b5b50905061300a9190613094565b5090565b82805461301a906139e9565b90600052602060002090601f01602090048101928261303c5760008555613083565b82601f1061305557805160ff1916838001178555613083565b82800160010185558215613083579182015b82811115613082578251825591602001919060010190613067565b5b5090506130909190613094565b5090565b5b808211156130ad576000816000905550600101613095565b5090565b6000604051905090565b600080fd5b600080fd5b60007fffffffff0000000000000000000000000000000000000000000000000000000082169050919050565b6130fa816130c5565b811461310557600080fd5b50565b600081359050613117816130f1565b92915050565b600060208284031215613133576131326130bb565b5b600061314184828501613108565b91505092915050565b60008115159050919050565b61315f8161314a565b82525050565b600060208201905061317a6000830184613156565b92915050565b600081519050919050565b600082825260208201905092915050565b60005b838110156131ba57808201518184015260208101905061319f565b838111156131c9576000848401525b50505050565b6000601f19601f8301169050919050565b60006131eb82613180565b6131f5818561318b565b935061320581856020860161319c565b61320e816131cf565b840191505092915050565b6000602082019050818103600083015261323381846131e0565b905092915050565b6000819050919050565b61324e8161323b565b811461325957600080fd5b50565b60008135905061326b81613245565b92915050565b600060208284031215613287576132866130bb565b5b60006132958482850161325c565b91505092915050565b600073ffffffffffffffffffffffffffffffffffffffff82169050919050565b60006132c98261329e565b9050919050565b6132d9816132be565b82525050565b60006020820190506132f460008301846132d0565b92915050565b613303816132be565b811461330e57600080fd5b50565b600081359050613320816132fa565b92915050565b6000806040838503121561333d5761333c6130bb565b5b600061334b85828601613311565b925050602061335c8582860161325c565b9150509250929050565b600080fd5b600080fd5b600080fd5b60008083601f84011261338b5761338a613366565b5b8235905067ffffffffffffffff8111156133a8576133a761336b565b5b6020830191508360018202830111156133c4576133c3613370565b5b9250929050565b600080602083850312156133e2576133e16130bb565b5b600083013567ffffffffffffffff811115613400576133ff6130c0565b5b61340c85828601613375565b92509250509250929050565b600080600060608486031215613431576134306130bb565b5b600061343f86828701613311565b935050602061345086828701613311565b92505060406134618682870161325c565b9150509250925092565b600080fd5b7f4e487b7100000000000000000000000000000000000000000000000000000000600052604160045260246000fd5b6134a8826131cf565b810181811067ffffffffffffffff821117156134c7576134c6613470565b5b80604052505050565b60006134da6130b1565b90506134e6828261349f565b919050565b600067ffffffffffffffff82111561350657613505613470565b5b61350f826131cf565b9050602081019050919050565b82818337600083830152505050565b600061353e613539846134eb565b6134d0565b90508281526020810184848401111561355a5761355961346b565b5b61356584828561351c565b509392505050565b600082601f83011261358257613581613366565b5b813561359284826020860161352b565b91505092915050565b6000602082840312156135b1576135b06130bb565b5b600082013567ffffffffffffffff8111156135cf576135ce6130c0565b5b6135db8482850161356d565b91505092915050565b6000602082840312156135fa576135f96130bb565b5b600061360884828501613311565b91505092915050565b61361a8161323b565b82525050565b60006020820190506136356000830184613611565b92915050565b6136448161314a565b811461364f57600080fd5b50565b6000813590506136618161363b565b92915050565b6000806040838503121561367e5761367d6130bb565b5b600061368c85828601613311565b925050602061369d85828601613652565b9150509250929050565b600067ffffffffffffffff8211156136c2576136c1613470565b5b6136cb826131cf565b9050602081019050919050565b60006136eb6136e6846136a7565b6134d0565b9050828152602081018484840111156137075761370661346b565b5b61371284828561351c565b509392505050565b600082601f83011261372f5761372e613366565b5b813561373f8482602086016136d8565b91505092915050565b60008060008060808587031215613762576137616130bb565b5b600061377087828801613311565b945050602061378187828801613311565b93505060406137928782880161325c565b925050606085013567ffffffffffffffff8111156137b3576137b26130c0565b5b6137bf8782880161371a565b91505092959194509250565b600080600080604085870312156137e5576137e46130bb565b5b600085013567ffffffffffffffff811115613803576138026130c0565b5b61380f87828801613375565b9450945050602085013567ffffffffffffffff811115613832576138316130c0565b5b61383e87828801613375565b925092505092959194509250565b60008060408385031215613863576138626130bb565b5b600061387185828601613311565b925050602061388285828601613311565b9150509250929050565b600081519050919050565b600082825260208201905092915050565b6000819050602082019050919050565b600082825260208201905092915050565b60006138d482613180565b6138de81856138b8565b93506138ee81856020860161319c565b6138f7816131cf565b840191505092915050565b600061390e83836138c9565b905092915050565b6000602082019050919050565b600061392e8261388c565b6139388185613897565b93508360208202850161394a856138a8565b8060005b8581101561398657848403895281516139678582613902565b945061397283613916565b925060208a0199505060018101905061394e565b50829750879550505050505092915050565b600060208201905081810360008301526139b28184613923565b905092915050565b7f4e487b7100000000000000000000000000000000000000000000000000000000600052602260045260246000fd5b60006002820490506001821680613a0157607f821691505b60208210811415613a1557613a146139ba565b5b50919050565b7f4552433732313a20617070726f76656420717565727920666f72206e6f6e657860008201527f697374656e7420746f6b656e0000000000000000000000000000000000000000602082015250565b6000613a77602c8361318b565b9150613a8282613a1b565b604082019050919050565b60006020820190508181036000830152613aa681613a6a565b9050919050565b7f4552433732313a20617070726f76616c20746f2063757272656e74206f776e6560008201527f7200000000000000000000000000000000000000000000000000000000000000602082015250565b6000613b0960218361318b565b9150613b1482613aad565b604082019050919050565b60006020820190508181036000830152613b3881613afc565b9050919050565b7f4552433732313a20617070726f76652063616c6c6572206973206e6f74206f7760008201527f6e6572206e6f7220617070726f76656420666f7220616c6c0000000000000000602082015250565b6000613b9b60388361318b565b9150613ba682613b3f565b604082019050919050565b60006020820190508181036000830152613bca81613b8e565b9050919050565b600081905092915050565b6000613be88385613bd1565b9350613bf583858461351c565b82840190509392505050565b6000613c0e828486613bdc565b91508190509392505050565b7f4552433732313a207472616e736665722063616c6c6572206973206e6f74206f60008201527f776e6572206e6f7220617070726f766564000000000000000000000000000000602082015250565b6000613c7660318361318b565b9150613c8182613c1a565b604082019050919050565b60006020820190508181036000830152613ca581613c69565b9050919050565b600081905092915050565b50565b6000613cc7600083613cac565b9150613cd282613cb7565b600082019050919050565b6000613ce882613cba565b9150819050919050565b7f4661696c656420746f207769746864726177204d617469630000000000000000600082015250565b6000613d2860188361318b565b9150613d3382613cf2565b602082019050919050565b60006020820190508181036000830152613d5781613d1b565b9050919050565b7f4552433732313a206f776e657220717565727920666f72206e6f6e657869737460008201527f656e7420746f6b656e0000000000000000000000000000000000000000000000602082015250565b6000613dba60298361318b565b9150613dc582613d5e565b604082019050919050565b60006020820190508181036000830152613de981613dad565b9050919050565b7f4552433732313a2062616c616e636520717565727920666f7220746865207a6560008201527f726f206164647265737300000000000000000000000000000000000000000000602082015250565b6000613e4c602a8361318b565b9150613e5782613df0565b604082019050919050565b60006020820190508181036000830152613e7b81613e3f565b9050919050565b7f45524337323155524953746f726167653a2055524920717565727920666f722060008201527f6e6f6e6578697374656e7420746f6b656e000000000000000000000000000000602082015250565b6000613ede60318361318b565b9150613ee982613e82565b604082019050919050565b60006020820190508181036000830152613f0d81613ed1565b9050919050565b6000613f1f82613180565b613f298185613bd1565b9350613f3981856020860161319c565b80840191505092915050565b6000613f518285613f14565b9150613f5d8284613f14565b91508190509392505050565b6000613f75838561318b565b9350613f8283858461351c565b613f8b836131cf565b840190509392505050565b60006020820190508181036000830152613fb1818486613f69565b90509392505050565b7f4e6f7420656e6f756768204d6174696320706169640000000000000000000000600082015250565b6000613ff060158361318b565b9150613ffb82613fba565b602082019050919050565b6000602082019050818103600083015261401f81613fe3565b9050919050565b7f2e00000000000000000000000000000000000000000000000000000000000000600082015250565b600061405c600183613bd1565b915061406782614026565b600182019050919050565b60008190508160005260206000209050919050565b60008154614094816139e9565b61409e8186613bd1565b945060018216600081146140b957600181146140ca576140fd565b60ff198316865281860193506140fd565b6140d385614072565b60005b838110156140f5578154818901526001820191506020810190506140d6565b838801955050505b50505092915050565b6000614113828587613bdc565b915061411e8261404f565b915061412a8284614087565b9150819050949350505050565b60006141438286614087565b915061414f8285613f14565b915061415b8284614087565b9150819050949350505050565b7f7b226e616d65223a202200000000000000000000000000000000000000000000600082015250565b600061419e600a83613bd1565b91506141a982614168565b600a82019050919050565b7f222c20226465736372697074696f6e223a20224120646f6d61696e206f6e207460008201527f6865204f74746572204e616d652053797374656d222c2022696d616765223a2060208201527f22646174613a696d6167652f7376672b786d6c3b6261736536342c0000000000604082015250565b6000614236605b83613bd1565b9150614241826141b4565b605b82019050919050565b7f222c226c656e677468223a220000000000000000000000000000000000000000600082015250565b6000614282600c83613bd1565b915061428d8261424c565b600c82019050919050565b7f227d000000000000000000000000000000000000000000000000000000000000600082015250565b60006142ce600283613bd1565b91506142d982614298565b600282019050919050565b60006142ef82614191565b91506142fb8286613f14565b915061430682614229565b91506143128285613f14565b915061431d82614275565b91506143298284613f14565b9150614334826142c1565b9150819050949350505050565b7f646174613a6170706c69636174696f6e2f6a736f6e3b6261736536342c000000600082015250565b6000614377601d83613bd1565b915061438282614341565b601d82019050919050565b60006143988261436a565b91506143a48284613f14565b915081905092915050565b7f4e487b7100000000000000000000000000000000000000000000000000000000600052603260045260246000fd5b7f4e487b7100000000000000000000000000000000000000000000000000000000600052601160045260246000fd5b60006144188261323b565b91507fffffffffffffffffffffffffffffffffffffffffffffffffffffffffffffffff82141561444b5761444a6143de565b5b600182019050919050565b6000604082019050818103600083015261447081856131e0565b9050818103602083015261448481846131e0565b90509392505050565b7f4552433732313a206f70657261746f7220717565727920666f72206e6f6e657860008201527f697374656e7420746f6b656e0000000000000000000000000000000000000000602082015250565b60006144e9602c8361318b565b91506144f48261448d565b604082019050919050565b60006020820190508181036000830152614518816144dc565b9050919050565b7f4552433732313a207472616e736665722066726f6d20696e636f72726563742060008201527f6f776e6572000000000000000000000000000000000000000000000000000000602082015250565b600061457b60258361318b565b91506145868261451f565b604082019050919050565b600060208201905081810360008301526145aa8161456e565b9050919050565b7f4552433732313a207472616e7366657220746f20746865207a65726f2061646460008201527f7265737300000000000000000000000000000000000000000000000000000000602082015250565b600061460d60248361318b565b9150614618826145b1565b604082019050919050565b6000602082019050818103600083015261463c81614600565b9050919050565b600061464e8261323b565b91506146598361323b565b92508282101561466c5761466b6143de565b5b828203905092915050565b60006146828261323b565b915061468d8361323b565b9250827fffffffffffffffffffffffffffffffffffffffffffffffffffffffffffffffff038211156146c2576146c16143de565b5b828201905092915050565b7f4552433732313a20617070726f766520746f2063616c6c657200000000000000600082015250565b600061470360198361318b565b915061470e826146cd565b602082019050919050565b60006020820190508181036000830152614732816146f6565b9050919050565b7f4552433732313a207472616e7366657220746f206e6f6e20455243373231526560008201527f63656976657220696d706c656d656e7465720000000000000000000000000000602082015250565b600061479560328361318b565b91506147a082614739565b604082019050919050565b600060208201905081810360008301526147c481614788565b9050919050565b7f4552433732314d657461646174613a2055524920717565727920666f72206e6f60008201527f6e6578697374656e7420746f6b656e0000000000000000000000000000000000602082015250565b6000614827602f8361318b565b9150614832826147cb565b604082019050919050565b600060208201905081810360008301526148568161481a565b9050919050565b7f4e487b7100000000000000000000000000000000000000000000000000000000600052601260045260246000fd5b60006148978261323b565b91506148a28361323b565b9250826148b2576148b161485d565b5b828204905092915050565b60006148c88261323b565b91506148d38361323b565b9250826148e3576148e261485d565b5b828206905092915050565b6000608082019050818103600083015261490881876131e0565b9050818103602083015261491c81866131e0565b9050818103604083015261493081856131e0565b905061493f6060830184613611565b95945050505050565b60006149538261323b565b915061495e8361323b565b9250817fffffffffffffffffffffffffffffffffffffffffffffffffffffffffffffffff0483118215151615614997576149966143de565b5b828202905092915050565b7f45524337323155524953746f726167653a2055524920736574206f66206e6f6e60008201527f6578697374656e7420746f6b656e000000000000000000000000000000000000602082015250565b60006149fe602e8361318b565b9150614a09826149a2565b604082019050919050565b60006020820190508181036000830152614a2d816149f1565b9050919050565b60006060820190508181036000830152614a4e81866131e0565b9050614a5d6020830185613611565b8181036040830152614a6f81846131e0565b9050949350505050565b600081519050919050565b600082825260208201905092915050565b6000614aa082614a79565b614aaa8185614a84565b9350614aba81856020860161319c565b614ac3816131cf565b840191505092915050565b6000608082019050614ae360008301876132d0565b614af060208301866132d0565b614afd6040830185613611565b8181036060830152614b0f8184614a95565b905095945050505050565b600081519050614b29816130f1565b92915050565b600060208284031215614b4557614b446130bb565b5b6000614b5384828501614b1a565b91505092915050565b7f4552433732313a206d696e7420746f20746865207a65726f2061646472657373600082015250565b6000614b9260208361318b565b9150614b9d82614b5c565b602082019050919050565b60006020820190508181036000830152614bc181614b85565b9050919050565b7f4552433732313a20746f6b656e20616c7265616479206d696e74656400000000600082015250565b6000614bfe601c8361318b565b9150614c0982614bc8565b602082019050919050565b60006020820190508181036000830152614c2d81614bf1565b905091905056fe0a2d2d2d2d2d2d2d2d2d2d2d2d2d2d2d2d2d2d2d2d2d2d2d2d2d2d2d2d2d2d2d2d2d2d2d2d2d2d2d2d2d2d2d2d2d2d2d2d2d2d2d2d2d2d2d2d5265676973746572696e672025732e2573206f6e2074686520636f6e7472616374207769746820746f6b656e49442025642d2d2d2d2d2d2d2d2d2d2d2d2d2d2d2d2d2d2d2d2d2d2d2d2d2d2d2d2d2d2d2d2d2d2d2d2d2d2d2d2d2d2d2d2d2d2d2d2d2d2d2d2d2d2d2d0a4142434445464748494a4b4c4d4e4f505152535455565758595a6162636465666768696a6b6c6d6e6f707172737475767778797a303132333435363738392b2fa2646970667358221220de50dc761a19b2defaca25e31c5d866bd251d3cdb6820dba40029d09aa2e73ca64736f6c634300080a00333c73766720786d6c6e733d22687474703a2f2f7777772e77332e6f72672f323030302f737667222077696474683d2232373022206865696768743d22323730222066696c6c3d226e6f6e65223e3c706174682066696c6c3d2275726c282342292220643d224d302030683237307632373048307a222f3e3c646566733e3c66696c7465722069643d22412220636f6c6f722d696e746572706f6c6174696f6e2d66696c746572733d2273524742222066696c746572556e6974733d227573657253706163654f6e55736522206865696768743d22323730222077696474683d22323730223e3c666544726f70536861646f772064783d2230222064793d22312220737464446576696174696f6e3d22322220666c6f6f642d6f7061636974793d222e323235222077696474683d223230302522206865696768743d2232303025222f3e3c2f66696c7465723e3c2f646566733e3c7061746820643d224d37322e3836332034322e393439632d2e3636382d2e3338372d312e3432362d2e35392d322e3139372d2e3539732d312e3532392e3230342d322e3139372e35396c2d31302e30383120362e3033322d362e383520332e3933342d31302e30383120362e303332632d2e3636382e3338372d312e3432362e35392d322e3139372e3539732d312e3532392d2e3230342d322e3139372d2e35396c2d382e3031332d342e37323161342e353220342e35322030203020312d312e3538392d312e363136632d2e3338342d2e3636352d2e3539342d312e3431382d2e3630382d322e313837762d392e3331632d2e3031332d2e3737352e3138352d312e3533382e3537322d322e32303861342e323520342e323520302030203120312e3632352d312e3539356c372e3838342d342e3539632e3636382d2e33383720312e3432362d2e353920322e3139372d2e353973312e3532392e32303420322e3139372e35396c372e38383420342e353961342e353220342e353220302030203120312e35383920312e363136632e3338342e3636352e35393420312e3431382e36303820322e31383776362e3033326c362e38352d342e303635762d362e303332632e3031332d2e3737352d2e3138352d312e3533382d2e3537322d322e32303861342e323520342e32352030203020302d312e3632352d312e3539354c34312e3435362032342e3539632d2e3636382d2e3338372d312e3432362d2e35392d322e3139372d2e3539732d312e3532392e3230342d322e3139372e35396c2d31342e38363420382e36353561342e323520342e32352030203020302d312e36323520312e353935632d2e3338372e36372d2e35383520312e3433342d2e35373220322e3230387631372e343431632d2e3031332e3737352e31383520312e3533382e35373220322e32303861342e323520342e323520302030203020312e36323520312e3539356c31342e38363420382e363535632e3636382e33383720312e3432362e353920322e3139372e353973312e3532392d2e32303420322e3139372d2e35396c31302e3038312d352e39303120362e38352d342e3036352031302e3038312d352e393031632e3636382d2e33383720312e3432362d2e353920322e3139372d2e353973312e3532392e32303420322e3139372e35396c372e38383420342e353961342e353220342e353220302030203120312e35383920312e363136632e3338342e3636352e35393420312e3431382e36303820322e31383776392e333131632e3031332e3737352d2e31383520312e3533382d2e35373220322e32303861342e323520342e32352030203020312d312e36323520312e3539356c2d372e38383420342e373231632d2e3636382e3338372d312e3432362e35392d322e3139372e3539732d312e3532392d2e3230342d322e3139372d2e35396c2d372e3838342d342e353961342e353220342e35322030203020312d312e3538392d312e363136632d2e3338352d2e3636352d2e3539342d312e3431382d2e3630382d322e313837762d362e3033326c2d362e383520342e30363576362e303332632d2e3031332e3737352e31383520312e3533382e35373220322e32303861342e323520342e323520302030203020312e36323520312e3539356c31342e38363420382e363535632e3636382e33383720312e3432362e353920322e3139372e353973312e3532392d2e32303420322e3139372d2e35396c31342e3836342d382e363535632e3635372d2e33393420312e3230342d2e393520312e3538392d312e363136732e3539342d312e3431382e3630392d322e3138375635352e353338632e3031332d2e3737352d2e3138352d312e3533382d2e3537322d322e32303861342e323520342e32352030203020302d312e3632352d312e3539356c2d31342e3939332d382e3738367a222066696c6c3d2223666666222f3e3c646566733e3c6c696e6561724772616469656e742069643d2242222078313d2230222079313d2230222078323d22323730222079323d2232373022206772616469656e74556e6974733d227573657253706163654f6e557365223e3c73746f702073746f702d636f6c6f723d2223636235656565222f3e3c73746f70206f66667365743d2231222073746f702d636f6c6f723d2223306364376534222073746f702d6f7061636974793d222e3939222f3e3c2f6c696e6561724772616469656e743e3c2f646566733e3c7465787420783d2233322e352220793d223233312220666f6e742d73697a653d223237222066696c6c3d2223666666222066696c7465723d2275726c282341292220666f6e742d66616d696c793d22506c7573204a616b617274612053616e732c44656a6156752053616e732c4e6f746f20436f6c6f7220456d6f6a692c4170706c6520436f6c6f7220456d6f6a692c73616e732d73657269662220666f6e742d7765696768743d22626f6c64223e",
  "linkReferences": {},
  "deployedLinkReferences": {}
}